{
  "contractName": "OlivaContract",
  "abi": [
    {
      "inputs": [],
      "stateMutability": "nonpayable",
      "type": "constructor"
    },
    {
      "anonymous": false,
      "inputs": [
        {
          "indexed": false,
          "internalType": "string",
          "name": "idProducto",
          "type": "string"
        },
        {
          "indexed": false,
          "internalType": "uint256",
          "name": "marcaDeTiempo",
          "type": "uint256"
        },
        {
          "indexed": false,
          "internalType": "uint256",
          "name": "temperatura",
          "type": "uint256"
        },
        {
          "indexed": false,
          "internalType": "uint256",
          "name": "humedad",
          "type": "uint256"
        },
        {
          "indexed": false,
          "internalType": "uint256",
          "name": "presion",
          "type": "uint256"
        }
      ],
      "name": "DatosSensoresRegistrados",
      "type": "event"
    },
    {
      "anonymous": false,
      "inputs": [
        {
          "indexed": false,
          "internalType": "string",
          "name": "idProducto",
          "type": "string"
        },
        {
          "indexed": false,
          "internalType": "uint256",
          "name": "nivelDeCertificacion",
          "type": "uint256"
        }
      ],
      "name": "ProductoCertificado",
      "type": "event"
    },
    {
      "anonymous": false,
      "inputs": [
        {
          "indexed": false,
          "internalType": "string",
          "name": "idProducto",
          "type": "string"
        },
        {
          "indexed": false,
          "internalType": "string",
          "name": "nombreProducto",
          "type": "string"
        },
        {
          "indexed": false,
          "internalType": "uint256",
          "name": "fechaProduccion",
          "type": "uint256"
        },
        {
          "indexed": false,
          "internalType": "uint256",
          "name": "precioSalida",
          "type": "uint256"
        }
      ],
      "name": "ProductoCreado",
      "type": "event"
    },
    {
      "inputs": [],
      "name": "BotellasCreadas",
      "outputs": [
        {
          "internalType": "uint256",
          "name": "",
          "type": "uint256"
        }
      ],
      "stateMutability": "view",
      "type": "function",
      "constant": true
    },
    {
      "inputs": [
        {
          "internalType": "uint256",
          "name": "",
          "type": "uint256"
        }
      ],
      "name": "CertificadoresAutorizados",
      "outputs": [
        {
          "internalType": "address",
          "name": "",
          "type": "address"
        }
      ],
      "stateMutability": "view",
      "type": "function",
      "constant": true
    },
    {
      "inputs": [
        {
          "internalType": "string",
          "name": "",
          "type": "string"
        }
      ],
      "name": "botellasAceite",
      "outputs": [
        {
          "internalType": "string",
          "name": "nombreProducto",
          "type": "string"
        },
        {
          "internalType": "uint256",
          "name": "fechaProduccion",
          "type": "uint256"
        },
        {
          "internalType": "uint256",
          "name": "nivelDeCertificacion",
          "type": "uint256"
        },
        {
          "internalType": "uint256",
          "name": "precioSalida",
          "type": "uint256"
        },
        {
          "internalType": "bool",
          "name": "estaCertificado",
          "type": "bool"
        }
      ],
      "stateMutability": "view",
      "type": "function",
      "constant": true
    },
    {
      "inputs": [],
      "name": "owner",
      "outputs": [
        {
          "internalType": "address",
          "name": "",
          "type": "address"
        }
      ],
      "stateMutability": "view",
      "type": "function",
      "constant": true
    },
    {
      "inputs": [
        {
          "internalType": "address",
          "name": "certifier",
          "type": "address"
        }
      ],
      "name": "soyCertificadorAutorizado",
      "outputs": [
        {
          "internalType": "bool",
          "name": "",
          "type": "bool"
        }
      ],
      "stateMutability": "view",
      "type": "function",
      "constant": true
    },
    {
      "inputs": [
        {
          "internalType": "address",
          "name": "certifier",
          "type": "address"
        }
      ],
      "name": "anadeCertificadorAutorizado",
      "outputs": [],
      "stateMutability": "nonpayable",
      "type": "function"
    },
    {
      "inputs": [
        {
          "internalType": "string",
          "name": "idProducto",
          "type": "string"
        },
        {
          "internalType": "string",
          "name": "nombreProducto",
          "type": "string"
        },
        {
          "internalType": "uint256",
          "name": "fechaProduccion",
          "type": "uint256"
        },
        {
          "internalType": "uint256",
          "name": "precioSalida",
          "type": "uint256"
        }
      ],
      "name": "crearProducto",
      "outputs": [],
      "stateMutability": "nonpayable",
      "type": "function"
    },
    {
      "inputs": [
        {
          "internalType": "string",
          "name": "idProducto",
          "type": "string"
        },
        {
          "internalType": "uint256",
          "name": "nivelDeCertificacion",
          "type": "uint256"
        }
      ],
      "name": "certificarProducto",
      "outputs": [],
      "stateMutability": "nonpayable",
      "type": "function"
    },
    {
      "inputs": [
        {
          "internalType": "string",
          "name": "idProducto",
          "type": "string"
        },
        {
          "internalType": "uint256",
          "name": "timestamp",
          "type": "uint256"
        },
        {
          "internalType": "uint256",
          "name": "temperatura",
          "type": "uint256"
        },
        {
          "internalType": "uint256",
          "name": "humedad",
          "type": "uint256"
        },
        {
          "internalType": "uint256",
          "name": "presion",
          "type": "uint256"
        }
      ],
      "name": "registrarDatosSensores",
      "outputs": [],
      "stateMutability": "nonpayable",
      "type": "function"
    },
    {
      "inputs": [
        {
          "internalType": "string",
          "name": "idProducto",
          "type": "string"
        }
      ],
      "name": "obtenerCantidadDatosSensores",
      "outputs": [
        {
          "internalType": "uint256",
          "name": "",
          "type": "uint256"
        }
      ],
      "stateMutability": "view",
      "type": "function",
      "constant": true
    },
    {
      "inputs": [],
      "name": "getProductos",
      "outputs": [
        {
          "internalType": "string[]",
          "name": "",
          "type": "string[]"
        },
        {
          "internalType": "string[]",
          "name": "",
          "type": "string[]"
        },
        {
          "internalType": "uint256[]",
          "name": "",
          "type": "uint256[]"
        },
        {
          "internalType": "uint256[]",
          "name": "",
          "type": "uint256[]"
        }
      ],
      "stateMutability": "view",
      "type": "function",
      "constant": true
    }
  ],
  "bytecode": "0x60806040526000805534801561001457600080fd5b5033600160006101000a81548173ffffffffffffffffffffffffffffffffffffffff021916908373ffffffffffffffffffffffffffffffffffffffff160217905550611d6d806100656000396000f3fe608060405234801561001057600080fd5b50600436106100a85760003560e01c80638da5cb5b116100715780638da5cb5b1461016a578063a485e06714610188578063bf923743146101b8578063d44bbb56146101e8578063dc2b63fc14610204578063de839aac14610222576100a8565b80629e89a9146100ad57806303190130146100c957806362de9367146100e55780637b4baf2c146101065780637db6c5bb1461013a575b600080fd5b6100c760048036038101906100c291906110cc565b61023e565b005b6100e360048036038101906100de919061116b565b6103f6565b005b6100ed610594565b6040516100fd9493929190611527565b60405180910390f35b610120600480360381019061011b9190611083565b610859565b604051610131959493929190611626565b60405180910390f35b610154600480360381019061014f9190611083565b61093a565b604051610161919061175a565b60405180910390f35b610172610968565b60405161017f919061150c565b60405180910390f35b6101a2600480360381019061019d919061125e565b61098e565b6040516101af919061150c565b60405180910390f35b6101d260048036038101906101cd9190611056565b6109cd565b6040516101df9190611588565b60405180910390f35b61020260048036038101906101fd9190611056565b610a7c565b005b61020c610bbb565b604051610219919061175a565b60405180910390f35b61023c600480360381019061023791906111c7565b610bc1565b005b600160009054906101000a900473ffffffffffffffffffffffffffffffffffffffff1673ffffffffffffffffffffffffffffffffffffffff163373ffffffffffffffffffffffffffffffffffffffff16146102ce576040517f08c379a00000000000000000000000000000000000000000000000000000000081526004016102c59061171a565b60405180910390fd5b60006003856040516102e091906114f5565b908152602001604051809103902060000180546102fc906119ba565b90501461033e576040517f08c379a0000000000000000000000000000000000000000000000000000000008152600401610335906116da565b60405180910390fd5b600060038560405161035091906114f5565b9081526020016040518091039020905083816000019080519060200190610378929190610f19565b508281600101819055506000816002018190555060008160040160006101000a81548160ff0219169083151502179055508181600301819055507f2060aea650225615c8ce44e85349806f033305a71241a0c30858b96b3e53f84d858585856040516103e794939291906115a3565b60405180910390a15050505050565b600160009054906101000a900473ffffffffffffffffffffffffffffffffffffffff1673ffffffffffffffffffffffffffffffffffffffff163373ffffffffffffffffffffffffffffffffffffffff1614610486576040517f08c379a000000000000000000000000000000000000000000000000000000000815260040161047d9061171a565b60405180910390fd5b600060038360405161049891906114f5565b908152602001604051809103902060000180546104b4906119ba565b905014156104f7576040517f08c379a00000000000000000000000000000000000000000000000000000000081526004016104ee906116fa565b60405180910390fd5b8060038360405161050891906114f5565b908152602001604051809103902060020181905550600160038360405161052f91906114f5565b908152602001604051809103902060040160006101000a81548160ff0219169083151502179055507f1cb7a8b910c6844c17533b6e170fe767d62301efaa8d50df2adfdf5f6a079f2d82826040516105889291906115f6565b60405180910390a15050565b60608060608060008054905060008167ffffffffffffffff8111156105bc576105bb611b53565b5b6040519080825280602002602001820160405280156105ef57816020015b60608152602001906001900390816105da5790505b50905060008267ffffffffffffffff81111561060e5761060d611b53565b5b60405190808252806020026020018201604052801561064157816020015b606081526020019060019003908161062c5790505b50905060008367ffffffffffffffff8111156106605761065f611b53565b5b60405190808252806020026020018201604052801561068e5781602001602082028036833780820191505090505b50905060008467ffffffffffffffff8111156106ad576106ac611b53565b5b6040519080825280602002602001820160405280156106db5781602001602082028036833780820191505090505b50905060005b8581101561084157600060036106f683610da3565b60405161070391906114f5565b9081526020016040518091039020905061071c82610da3565b86838151811061072f5761072e611b24565b5b6020026020010181905250806000018054610749906119ba565b80601f0160208091040260200160405190810160405280929190818152602001828054610775906119ba565b80156107c25780601f10610797576101008083540402835291602001916107c2565b820191906000526020600020905b8154815290600101906020018083116107a557829003601f168201915b50505050508583815181106107da576107d9611b24565b5b602002602001018190525080600101548483815181106107fd576107fc611b24565b5b602002602001018181525050806003015483838151811061082157610820611b24565b5b60200260200101818152505050808061083990611a1d565b9150506106e1565b50838383839850985098509850505050505090919293565b600381805160208101820180518482526020830160208501208183528095505050505050600091509050806000018054610892906119ba565b80601f01602080910402602001604051908101604052809291908181526020018280546108be906119ba565b801561090b5780601f106108e05761010080835404028352916020019161090b565b820191906000526020600020905b8154815290600101906020018083116108ee57829003601f168201915b5050505050908060010154908060020154908060030154908060040160009054906101000a900460ff16905085565b600060038260405161094c91906114f5565b9081526020016040518091039020600501805490509050919050565b600160009054906101000a900473ffffffffffffffffffffffffffffffffffffffff1681565b6002818154811061099e57600080fd5b906000526020600020016000915054906101000a900473ffffffffffffffffffffffffffffffffffffffff1681565b600080600090505b600280549050811015610a71578273ffffffffffffffffffffffffffffffffffffffff1660028281548110610a0d57610a0c611b24565b5b9060005260206000200160009054906101000a900473ffffffffffffffffffffffffffffffffffffffff1673ffffffffffffffffffffffffffffffffffffffff161415610a5e576001915050610a77565b8080610a6990611a1d565b9150506109d5565b50600090505b919050565b600160009054906101000a900473ffffffffffffffffffffffffffffffffffffffff1673ffffffffffffffffffffffffffffffffffffffff163373ffffffffffffffffffffffffffffffffffffffff1614610b0c576040517f08c379a0000000000000000000000000000000000000000000000000000000008152600401610b039061171a565b60405180910390fd5b610b15816109cd565b15610b55576040517f08c379a0000000000000000000000000000000000000000000000000000000008152600401610b4c9061173a565b60405180910390fd5b6002819080600181540180825580915050600190039060005260206000200160009091909190916101000a81548173ffffffffffffffffffffffffffffffffffffffff021916908373ffffffffffffffffffffffffffffffffffffffff16021790555050565b60005481565b600160009054906101000a900473ffffffffffffffffffffffffffffffffffffffff1673ffffffffffffffffffffffffffffffffffffffff163373ffffffffffffffffffffffffffffffffffffffff1614610c51576040517f08c379a0000000000000000000000000000000000000000000000000000000008152600401610c489061171a565b60405180910390fd5b6000600386604051610c6391906114f5565b90815260200160405180910390206000018054610c7f906119ba565b90501415610cc2576040517f08c379a0000000000000000000000000000000000000000000000000000000008152600401610cb9906116fa565b60405180910390fd5b60006040518060800160405280868152602001858152602001848152602001838152509050600386604051610cf791906114f5565b90815260200160405180910390206005018190806001815401808255809150506001900390600052602060002090600402016000909190919091506000820151816000015560208201518160010155604082015181600201556060820151816003015550507f511d9bde925a34731bc15e30f56c8fea5553554c7cbbe91d534cfd23c9025c268686868686604051610d93959493929190611680565b60405180910390a1505050505050565b60606000821415610deb576040518060400160405280600181526020017f30000000000000000000000000000000000000000000000000000000000000008152509050610f14565b600082905060005b60008214610e1d578080610e0690611a1d565b915050600a82610e1691906118cb565b9150610df3565b60008167ffffffffffffffff811115610e3957610e38611b53565b5b6040519080825280601f01601f191660200182016040528015610e6b5781602001600182028036833780820191505090505b50905060008290508593505b60008414610f0c57600a84610e8c9190611a66565b6030610e989190611875565b60f81b82600183610ea991906118fc565b81518110610eba57610eb9611b24565b5b60200101907effffffffffffffffffffffffffffffffffffffffffffffffffffffffffffff1916908160001a905350600181610ef691906118fc565b9050600a84610f0591906118cb565b9350610e77565b819450505050505b919050565b828054610f25906119ba565b90600052602060002090601f016020900481019282610f475760008555610f8e565b82601f10610f6057805160ff1916838001178555610f8e565b82800160010185558215610f8e579182015b82811115610f8d578251825591602001919060010190610f72565b5b509050610f9b9190610f9f565b5090565b5b80821115610fb8576000816000905550600101610fa0565b5090565b6000610fcf610fca8461179a565b611775565b905082815260208101848484011115610feb57610fea611b87565b5b610ff6848285611978565b509392505050565b60008135905061100d81611d09565b92915050565b600082601f83011261102857611027611b82565b5b8135611038848260208601610fbc565b91505092915050565b60008135905061105081611d20565b92915050565b60006020828403121561106c5761106b611b91565b5b600061107a84828501610ffe565b91505092915050565b60006020828403121561109957611098611b91565b5b600082013567ffffffffffffffff8111156110b7576110b6611b8c565b5b6110c384828501611013565b91505092915050565b600080600080608085870312156110e6576110e5611b91565b5b600085013567ffffffffffffffff81111561110457611103611b8c565b5b61111087828801611013565b945050602085013567ffffffffffffffff81111561113157611130611b8c565b5b61113d87828801611013565b935050604061114e87828801611041565b925050606061115f87828801611041565b91505092959194509250565b6000806040838503121561118257611181611b91565b5b600083013567ffffffffffffffff8111156111a05761119f611b8c565b5b6111ac85828601611013565b92505060206111bd85828601611041565b9150509250929050565b600080600080600060a086880312156111e3576111e2611b91565b5b600086013567ffffffffffffffff81111561120157611200611b8c565b5b61120d88828901611013565b955050602061121e88828901611041565b945050604061122f88828901611041565b935050606061124088828901611041565b925050608061125188828901611041565b9150509295509295909350565b60006020828403121561127457611273611b91565b5b600061128284828501611041565b91505092915050565b600061129783836113a8565b905092915050565b60006112ab83836114d7565b60208301905092915050565b6112c081611930565b82525050565b60006112d1826117eb565b6112db8185611826565b9350836020820285016112ed856117cb565b8060005b85811015611329578484038952815161130a858261128b565b94506113158361180c565b925060208a019950506001810190506112f1565b50829750879550505050505092915050565b6000611346826117f6565b6113508185611837565b935061135b836117db565b8060005b8381101561138c578151611373888261129f565b975061137e83611819565b92505060018101905061135f565b5085935050505092915050565b6113a281611942565b82525050565b60006113b382611801565b6113bd8185611848565b93506113cd818560208601611987565b6113d681611b96565b840191505092915050565b60006113ec82611801565b6113f68185611859565b9350611406818560208601611987565b61140f81611b96565b840191505092915050565b600061142582611801565b61142f818561186a565b935061143f818560208601611987565b80840191505092915050565b6000611458603a83611859565b915061146382611ba7565b604082019050919050565b600061147b602d83611859565b915061148682611bf6565b604082019050919050565b600061149e605083611859565b91506114a982611c45565b606082019050919050565b60006114c1603783611859565b91506114cc82611cba565b604082019050919050565b6114e08161196e565b82525050565b6114ef8161196e565b82525050565b6000611501828461141a565b915081905092915050565b600060208201905061152160008301846112b7565b92915050565b6000608082019050818103600083015261154181876112c6565b9050818103602083015261155581866112c6565b90508181036040830152611569818561133b565b9050818103606083015261157d818461133b565b905095945050505050565b600060208201905061159d6000830184611399565b92915050565b600060808201905081810360008301526115bd81876113e1565b905081810360208301526115d181866113e1565b90506115e060408301856114e6565b6115ed60608301846114e6565b95945050505050565b6000604082019050818103600083015261161081856113e1565b905061161f60208301846114e6565b9392505050565b600060a082019050818103600083015261164081886113e1565b905061164f60208301876114e6565b61165c60408301866114e6565b61166960608301856114e6565b6116766080830184611399565b9695505050505050565b600060a082019050818103600083015261169a81886113e1565b90506116a960208301876114e6565b6116b660408301866114e6565b6116c360608301856114e6565b6116d060808301846114e6565b9695505050505050565b600060208201905081810360008301526116f38161144b565b9050919050565b600060208201905081810360008301526117138161146e565b9050919050565b6000602082019050818103600083015261173381611491565b9050919050565b60006020820190508181036000830152611753816114b4565b9050919050565b600060208201905061176f60008301846114e6565b92915050565b600061177f611790565b905061178b82826119ec565b919050565b6000604051905090565b600067ffffffffffffffff8211156117b5576117b4611b53565b5b6117be82611b96565b9050602081019050919050565b6000819050602082019050919050565b6000819050602082019050919050565b600081519050919050565b600081519050919050565b600081519050919050565b6000602082019050919050565b6000602082019050919050565b600082825260208201905092915050565b600082825260208201905092915050565b600082825260208201905092915050565b600082825260208201905092915050565b600081905092915050565b60006118808261196e565b915061188b8361196e565b9250827fffffffffffffffffffffffffffffffffffffffffffffffffffffffffffffffff038211156118c0576118bf611a97565b5b828201905092915050565b60006118d68261196e565b91506118e18361196e565b9250826118f1576118f0611ac6565b5b828204905092915050565b60006119078261196e565b91506119128361196e565b92508282101561192557611924611a97565b5b828203905092915050565b600061193b8261194e565b9050919050565b60008115159050919050565b600073ffffffffffffffffffffffffffffffffffffffff82169050919050565b6000819050919050565b82818337600083830152505050565b60005b838110156119a557808201518184015260208101905061198a565b838111156119b4576000848401525b50505050565b600060028204905060018216806119d257607f821691505b602082108114156119e6576119e5611af5565b5b50919050565b6119f582611b96565b810181811067ffffffffffffffff82111715611a1457611a13611b53565b5b80604052505050565b6000611a288261196e565b91507fffffffffffffffffffffffffffffffffffffffffffffffffffffffffffffffff821415611a5b57611a5a611a97565b5b600182019050919050565b6000611a718261196e565b9150611a7c8361196e565b925082611a8c57611a8b611ac6565b5b828206905092915050565b7f4e487b7100000000000000000000000000000000000000000000000000000000600052601160045260246000fd5b7f4e487b7100000000000000000000000000000000000000000000000000000000600052601260045260246000fd5b7f4e487b7100000000000000000000000000000000000000000000000000000000600052602260045260246000fd5b7f4e487b7100000000000000000000000000000000000000000000000000000000600052603260045260246000fd5b7f4e487b7100000000000000000000000000000000000000000000000000000000600052604160045260246000fd5b600080fd5b600080fd5b600080fd5b600080fd5b6000601f19601f8301169050919050565b7f59612065786973746520756e6120626f74656c6c61206465206163656974652060008201527f636f6e20656c206d69736d6f206964656e746966696361646f72000000000000602082015250565b7f456c2070726f647563746f206e6f20657869737465206f2061756e206e6f206860008201527f61207369646f2063726561646f00000000000000000000000000000000000000602082015250565b7f2a2a55534f20504956494c45474941444f2a2a2c536f6c6f20656c2070726f7060008201527f6965746172696f2064656c20636f6e747261746f207075656465206c6c616d6160208201527f72206120657374612066756e63696f6e00000000000000000000000000000000604082015250565b7f4573746120646972656363696f6e2079612070657274656e656365206120756e60008201527f6120656e746964616420636572746966696361646f7261000000000000000000602082015250565b611d1281611930565b8114611d1d57600080fd5b50565b611d298161196e565b8114611d3457600080fd5b5056fea264697066735822122055130e319c28b7d2826da24a97350f5f7f6ac86e09c3822e4932e7da6ac237f564736f6c63430008060033",
  "immutableReferences": {},
  "source": "// SPDX-License-Identifier: MIT\r\npragma solidity ^0.8.6;\r\n\r\ncontract OlivaContract {\r\n    uint256 public BotellasCreadas = 0;\r\n    address public owner;\r\n    \r\n    address[] public CertificadoresAutorizados;\r\n\r\n    struct DatosSensor {\r\n        uint timestamp;\r\n        uint temperatura;\r\n        uint humedad;\r\n        uint presion;\r\n    }\r\n\r\n    struct BotellaAceite {\r\n        string nombreProducto;\r\n        uint fechaProduccion;\r\n        uint nivelDeCertificacion;\r\n        uint precioSalida;\r\n        bool estaCertificado;\r\n        DatosSensor[] datosSensores;\r\n    }\r\n\r\n    mapping(string => BotellaAceite) public botellasAceite; // Asociamos cada producto a una direccin\r\n\r\n    event ProductoCreado(string idProducto, string nombreProducto, uint fechaProduccion, uint precioSalida);\r\n    event ProductoCertificado(string idProducto, uint nivelDeCertificacion);\r\n    event DatosSensoresRegistrados(string idProducto, uint marcaDeTiempo, uint temperatura, uint humedad, uint presion);\r\n\r\n    constructor() {\r\n        owner = msg.sender;\r\n    }\r\n\r\n    modifier soloPropietario() {\r\n        require(msg.sender == owner, \"**USO PIVILEGIADO**,Solo el propietario del contrato puede llamar a esta funcion\");\r\n        _;\r\n    }\r\n    modifier soloCertificadorAutorizado() {\r\n        require(soyCertificadorAutorizado(msg.sender) , \"**USO PIVILEGIADO**,Solo los certificadores autorizados registrados del contrato puede llamar a esta funcion\");\r\n        _;\r\n    }\r\n    function soyCertificadorAutorizado(address certifier) public view returns (bool) {\r\n        for (uint i = 0; i < CertificadoresAutorizados.length; i++) {\r\n            if (CertificadoresAutorizados[i] == certifier) {\r\n                return true;\r\n            }\r\n        }\r\n        return false;\r\n    }\r\n\r\n    function anadeCertificadorAutorizado(address certifier) external soloPropietario {\r\n        require(!soyCertificadorAutorizado(certifier), \"Esta direccion ya pertenece a una entidad certificadora\");\r\n        CertificadoresAutorizados.push(certifier);\r\n    }\r\n    \r\n    function crearProducto(string memory idProducto, string memory nombreProducto, uint fechaProduccion, uint precioSalida) external soloPropietario {\r\n        require(bytes(botellasAceite[idProducto].nombreProducto).length == 0, \"Ya existe una botella de aceite con el mismo identificador\");\r\n\r\n        BotellaAceite storage nuevaBotella = botellasAceite[idProducto];\r\n        nuevaBotella.nombreProducto = nombreProducto;\r\n        nuevaBotella.fechaProduccion = fechaProduccion;\r\n        nuevaBotella.nivelDeCertificacion = 0;\r\n        nuevaBotella.estaCertificado = false;\r\n        nuevaBotella.precioSalida = precioSalida;\r\n        emit ProductoCreado(idProducto, nombreProducto, fechaProduccion, precioSalida);\r\n    }\r\n\r\n    function certificarProducto(string memory idProducto, uint nivelDeCertificacion) external soloPropietario {\r\n        require(bytes(botellasAceite[idProducto].nombreProducto).length != 0, \"El producto no existe o aun no ha sido creado\");\r\n\r\n        botellasAceite[idProducto].nivelDeCertificacion = nivelDeCertificacion;\r\n        botellasAceite[idProducto].estaCertificado = true;\r\n\r\n        emit ProductoCertificado(idProducto, nivelDeCertificacion);\r\n    }\r\n\r\n    function registrarDatosSensores(string memory idProducto, uint timestamp, uint temperatura, uint humedad, uint presion) external soloPropietario {\r\n        require(bytes(botellasAceite[idProducto].nombreProducto).length != 0, \"El producto no existe o aun no ha sido creado\");\r\n\r\n        DatosSensor memory nuevosDatos = DatosSensor({\r\n            timestamp: timestamp,\r\n            temperatura: temperatura,\r\n            humedad: humedad,\r\n            presion: presion\r\n        });\r\n\r\n        botellasAceite[idProducto].datosSensores.push(nuevosDatos);\r\n\r\n        emit DatosSensoresRegistrados(idProducto, timestamp, temperatura, humedad, presion);\r\n    }\r\n\r\n    function obtenerCantidadDatosSensores(string memory idProducto) external view returns (uint) {\r\n        return botellasAceite[idProducto].datosSensores.length;\r\n    }\r\n    function getProductos() external view returns (string[] memory, string[] memory, uint[] memory, uint[] memory) {\r\n    uint length = BotellasCreadas;\r\n    string[] memory ids = new string[](length);\r\n    string[] memory nombres = new string[](length);\r\n    uint[] memory fechasProduccion = new uint[](length);\r\n    uint[] memory preciosSalida = new uint[](length);\r\n\r\n    for (uint i = 0; i < length; i++) {\r\n        BotellaAceite storage producto = botellasAceite[uintToBytes(i)];\r\n        ids[i] = uintToBytes(i);\r\n        nombres[i] = producto.nombreProducto;\r\n        fechasProduccion[i] = producto.fechaProduccion;\r\n        preciosSalida[i] = producto.precioSalida;\r\n    }\r\n\r\n    return (ids, nombres, fechasProduccion, preciosSalida);\r\n}\r\n\r\nfunction uintToBytes(uint v) internal pure returns (string memory) {\r\n    if (v == 0) {\r\n        return \"0\";\r\n    }\r\n    uint j = v;\r\n    uint length;\r\n    while (j != 0) {\r\n        length++;\r\n        j /= 10;\r\n    }\r\n    bytes memory bstr = new bytes(length);\r\n    uint k = length;\r\n    j = v;\r\n    while (j != 0) {\r\n        bstr[k - 1] = bytes1(uint8(48 + j % 10));\r\n        k = k - 1;\r\n        j /= 10;\r\n    }\r\n    return string(bstr);\r\n}\r\n}\r\n",
  "sourcePath": "C:\\Users\\Valy\\Desktop\\myfirstcontract\\contracts\\OlivaContract.sol",
  "compiler": {
    "name": "solc",
    "version": "0.8.6+commit.11564f7e.Emscripten.clang"
  },
  "schemaVersion": "3.4.16",
  "updatedAt": "2023-11-06T19:04:17.522Z",
  "networkType": "ethereum",
  "devdoc": {
    "kind": "dev",
    "methods": {},
    "version": 1
  },
  "userdoc": {
    "kind": "user",
    "methods": {},
    "version": 1
  }
}